:100000000C942A000C9447000C9447000C94470071
:100010000C9447000C9447000C9447000C94470044
:100020000C9447000C9447000C9472030C94380312
:100030000C9447000C9447000C9447000C94470024
:100040000C9447000C9447000C9447000C946E04E9
:100050000C94470011241FBECFE5D8E0DEBFCDBF12
:1000600010E0A0E6B0E0E2EFFCE002C005900D92E7
:10007000A036B107D9F720E0A0E6B0E001C01D929C
:10008000A536B207E1F70E94A4000C9477060C9401
:100090000000AF92BF92CF92DF92EF92FF920F9348
:1000A0001F93CF93DF93CDB7DEB766970FB6F89463
:1000B000DEBF0FBECDBF5C0181E08C8782E08D8703
:1000C00083E08E8781E18F8782E1888B83E1898B52
:1000D00081E28A8B82E28B8B83E28C8B84E28D8B34
:1000E00085E28E8B8E01045F1F4FEE24E394F12C8A
:1000F000EC0EFD1E6E0187E1C80ED11CF801819146
:100100008F0190E00E94C102F70181937F010C15DD
:100110001D05A1F786E1FE013196D50101900D92F2
:100120008A95E1F7C50166960FB6F894DEBF0FBE5B
:10013000CDBFDF91CF911F910F91FF90EF90DF9096
:10014000CF90BF90AF900895CF93DF93CDB7DEB738
:1001500066970FB6F894DEBF0FBECDBF8AE70E9448
:1001600067048DE00E94E7028EE00E94E7028FE0C4
:100170000E94E70288E10E94E70289E10E94E7020B
:100180008AE10E94E7028BE10E94E7028CE10E9473
:10019000E70280E00E94C80281E00E94C80282E07B
:1001A0000E94C802CE0101960E944900809163001E
:1001B0008130D9F4109263008091640060916400F2
:1001C0006F7082958F7090E0E1E0F0E0EC0FFD1F22
:1001D000E80FF91F6083ECE0F0E0EC0FFD1FE80F83
:1001E000F91F808190E00E94B9028981811105C0C8
:1001F00060E08DE00E94FA020DC0813029F461E0D8
:100200008DE00E94FA0206C0823021F462E08DE0A7
:100210000E94FA028A81811105C060E08EE00E948E
:10022000FA020DC0813029F461E08EE00E94FA02EA
:1002300006C0823021F462E08EE00E94FA028B81D7
:10024000811105C060E08FE00E94FA020DC081308C
:1002500029F461E08FE00E94FA0206C0823021F4A6
:1002600062E08FE00E94FA028C81813029F461E023
:1002700080E00E94D10205C0811103C060E00E94AD
:10028000D1028D81813021F461E00E94D10206C04B
:10029000811104C060E081E00E94D1028E81813032
:1002A00029F461E082E00E94D10206C0811104C0FD
:1002B00060E082E00E94D1028F81811105C060E080
:1002C00088E10E94FA0206C0813021F462E088E1F0
:1002D0000E94FA028885811105C060E089E10E94D0
:1002E000FA0206C0813021F462E089E10E94FA023C
:1002F0008985811105C060E08AE10E94FA0206C08A
:10030000813021F462E08AE10E94FA028A8581113B
:1003100005C060E08BE10E94FA0206C0813021F442
:1003200062E08BE10E94FA028B85811105C060E0DA
:100330008CE10E94FA023ACF813009F037CF62E0B7
:100340008CE10E94FA0232CF813021F130F082300C
:10035000F1F1833009F074C057C0413069F42BB318
:1003600081E090E0AC0102C0440F551F6A95E2F7AE
:10037000BA01622B6BBB08952BB381E090E0AC0116
:1003800002C0440F551F6A95E2F7BA0160956223D7
:100390006BBB0895413069F428B381E090E0AC0173
:1003A00002C0440F551F6A95E2F7BA01622B68BB81
:1003B000089528B381E090E0AC0102C0440F551FBE
:1003C0006A95E2F7BA016095622368BB08954130EF
:1003D00069F425B381E090E0AC0102C0440F551FE1
:1003E0006A95E2F7BA01622B65BB089525B381E0F7
:1003F00090E0AC0102C0440F551F6A95E2F7BA01C4
:100400006095622365BB0895413069F422B381E0B1
:1004100090E0AC0102C0440F551F6A95E2F7BA01A3
:10042000622B62BB089522B381E090E0AC0102C070
:10043000440F551F6A95E2F7BA016095622362BBCB
:100440000895813061F138F0823009F44CC0833076
:1004500009F08EC06BC041110DC02AB381E090E05D
:10046000AC0102C0440F551F6A95E2F7BA01622B36
:100470006ABB08952AB381E090E0FC0102C0EE0F50
:10048000FF1F6A95E2F7BF018E2F809582238ABBFA
:10049000413009F06DC08BB3682B6BBB08954111DF
:1004A0000DC027B381E090E0AC0102C0440F551F9E
:1004B0006A95E2F7BA01622B67BB089527B381E022
:1004C00090E0FC0102C0EE0FFF1F6A95E2F7BF014A
:1004D0008E2F8095822387BB413009F049C088B3B5
:1004E000682B68BB089541110DC024B381E090E0F2
:1004F000AC0102C0440F551F6A95E2F7BA01622BA6
:1005000064BB089524B381E090E0FC0102C0EE0FCB
:10051000FF1F6A95E2F7BF018E2F8095822384BB6F
:10052000413031F585B3682B65BB089541110DC08D
:1005300021B381E090E0AC0102C0440F551F6A95E1
:10054000E2F7BA01622B61BB089521B381E090E02C
:10055000FC0102C0EE0FFF1F6A95E2F7BF018E2F6C
:100560008095822381BB413019F482B3682B62BB32
:100570000895E199FECF9FBB8EBB6DBBE29AE19AD5
:100580000895E199FECF9FBB8EBBE09A8DB308958D
:10059000682F677040E08695869586950E942102B7
:1005A0000895613049F4682F677041E0869586951B
:1005B00086950E94A4010895611108C0682F677094
:1005C00040E08695869586950E94A4010895CF9374
:1005D000C82F83E00E94AF0380E00E9454046C2F78
:1005E000677040E08C2F8695869586950E94210243
:1005F000CF9108958E3039F08F3041F08D3041F435
:100600001092620005C01092610002C0109260005A
:10061000611109C0682F677040E0869586958695C0
:100620000E94A40108956130C1F48E3041F08F30F2
:1006300051F08D3059F481E08093620007C081E071
:100640008093610003C081E08093600082E30E9498
:10065000FB0383E00E94DF030895623041F4682FBA
:10066000677041E08695869586950E94A40108955D
:100670001F920F920FB60F9211242F933F934F9317
:100680005F936F937F938F939F93AF93BF93EF93FA
:10069000FF9380916200813021F441E065E00E9487
:1006A000A40180916100813021F441E066E00E9464
:1006B000A40180916000813021F441E067E00E9454
:1006C000A401FF91EF91BF91AF919F918F917F9185
:1006D0006F915F914F913F912F910F900FBE0F90AF
:1006E0001F9018951F920F920FB60F9211242F93FF
:1006F0003F934F935F936F937F938F939F93AF93AA
:10070000BF93EF93FF9380916200882329F040E02C
:1007100065E081E00E94A40180916100882329F0B6
:1007200040E066E081E00E94A4018091600088239F
:1007300029F040E067E081E00E94A401FF91EF9181
:10074000BF91AF919F918F917F916F915F914F91E9
:100750003F912F910F900FBE0F901F901895F89416
:1007600093B79F7793BF80FF04C093B7906493BF04
:1007700003C093B79F7B93BF81FF04C093B798607A
:1007800093BF03C093B7977F93BF813051F028F098
:10079000823071F0833079F404C089B7816089BFF9
:1007A0000AC089B7816089BF89B7826089BF03C0E9
:1007B00089B7826089BF12BE1CBE7894089580FFFD
:1007C00004C093B7916093BF03C093B79E7F93BF5C
:1007D00081FF04C093B7926093BF03C093B79D7F1E
:1007E00093BF82FF04C083B7846083BF089583B73B
:1007F0008B7F83BF089593B743B745FB222720F92A
:1008000030E0220F331F92959170292B2330F1F4A1
:10081000682F70E080E090E00E94880520E030E0E2
:1008200048EC52E40E94F20420E030E04FE753E449
:100830000E9414069B01AC0160E070E08FE793E436
:100840000E948D040E945A056CBF08952230B1F4B5
:10085000682F70E080E090E00E94880520E030E0A2
:1008600048EC52E40E94F20420E030E04FE753E409
:100870000E9414060E945A056CBF0895682F70E00C
:1008800080E090E00E94880520E030E048EC52E4EF
:100890000E94F20420E030E04FE753E40E94140687
:1008A0000E945A056CBF089580FF04C093B7906101
:1008B00093BF03C093B79F7E93BF81FF04C083B7EC
:1008C000806283BF089583B78F7D83BF0895880FAB
:1008D00082B9F89485EC86BF789408951F920F92A0
:1008E0000FB60F9211248F9385B3805885BB81B1C9
:1008F000887F803849F483B18093640086B7846C24
:1009000086BF81E08093630086B7846886BF8F913D
:100910000F900FBE0F901F9018955058BB27AA2715
:100920000ED048C139D130F03ED120F031F49F3F94
:1009300011F41EF42EC10EF4E095E7FB24C1E92F5B
:100940004AD180F3BA17620773078407950718F036
:1009500071F49EF562C10EF4E0950B2EBA2FA02D16
:100960000B01B90190010C01CA01A0011124FF275C
:10097000591B99F0593F50F4503E68F11A16F04057
:10098000A22F232F342F4427585FF3CF4695379556
:100990002795A795F0405395C9F77EF41F16BA0B1B
:1009A000620B730B840BBAF09150A1F0FF0FBB1FC9
:1009B000661F771F881FC2F70EC0BA0F621F731F12
:1009C000841F48F4879577956795B795F7959E3F6F
:1009D00008F0B3CF9395880F08F09927EE0F9795FD
:1009E000879508950CD0E6C0DED040F0D5D030F029
:1009F00021F45F3F19F0C7C0511110C1CAC0EBD03C
:100A000098F39923C9F35523B1F3951B550BBB27D5
:100A1000AA2762177307840738F09F5F5F4F220F82
:100A2000331F441FAA1FA9F333D00E2E3AF0E0E87B
:100A300030D091505040E695001CCAF729D0FE2FC7
:100A400027D0660F771F881FBB1F26173707480759
:100A5000AB07B0E809F0BB0B802DBF01FF2793580F
:100A60005F4F2AF09E3F510568F08DC0D7C05F3FB1
:100A7000ECF3983EDCF3869577956795B795F795F7
:100A80009F5FC9F7880F911D9695879597F90895EF
:100A9000E1E0660F771F881FBB1F6217730784078B
:100AA000BA0720F0621B730B840BBA0BEE1F88F79A
:100AB000E095089598D088F09F5790F0B92F992726
:100AC000B751A0F0D1F0660F771F881F991F1AF059
:100AD000BA95C9F712C0B13081F09FD0B1E0089546
:100AE0009CC0672F782F8827B85F39F0B93FCCF3C7
:100AF000869577956795B395D9F73EF4909580954F
:100B0000709561957F4F8F4F9F4F0895E89409C06E
:100B100097FB3EF490958095709561957F4F8F4F30
:100B20009F4F9923A9F0F92F96E9BB279395F69546
:100B3000879577956795B795F111F8CFFAF4BB0FC4
:100B400011F460FF1BC06F5F7F4F8F4F9F4F16C028
:100B5000882311F096E911C0772321F09EE8872FB2
:100B6000762F05C0662371F096E8862F70E060E06E
:100B70002AF09A95660F771F881FDAF7880F9695E7
:100B8000879597F9089597F99F6780E870E060E08E
:100B900008959FEF80EC089500240A941616170616
:100BA00018060906089500240A941216130614065E
:100BB00005060895092E0394000C11F4882352F0C1
:100BC000BB0F40F4BF2B11F460FF04C06F5F7F4F79
:100BD0008F4F9F4F089557FD9058440F551F59F060
:100BE0005F3F71F04795880F97FB991F61F09F3F1A
:100BF00079F087950895121613061406551FF2CF43
:100C00004695F1DF08C0161617061806991FF1CF92
:100C100086957105610508940895E894BB276627B9
:100C20007727CB0197F908950BD0C4CFB5DF28F013
:100C3000BADF18F0952309F0A6CFABCF1124EECF81
:100C4000CADFA0F3959FD1F3950F50E0551F629F27
:100C5000F001729FBB27F00DB11D639FAA27F00D15
:100C6000B11DAA1F649F6627B00DA11D661F829F3C
:100C70002227B00DA11D621F739FB00DA11D621F21
:100C8000839FA00D611D221F749F3327A00D611D3E
:100C9000231F849F600D211D822F762F6A2F112420
:100CA0009F5750408AF0E1F088234AF0EE0FFF1F73
:100CB000BB1F661F771F881F91505040A9F79E3FAA
:100CC000510570F060CFAACF5F3FECF3983EDCF3A4
:100CD000869577956795B795F795E7959F5FC1F7E7
:100CE000FE2B880F911D9695879597F90895F89496
:020CF000FFCF34
:00000001FF
