S0170000414D49542050726F6A6563742052532E7372656326
S11300000C946B000C9488000C9488000C94880069
S11300100C9488000C9488000C9488000C9488003C
S11300200C9488000C9488000C941D030C94880094
S11300300C9488000C9488000C9488000C9488001C
S11300400C9488000C9488000C9488000C9488000C
S11300500C94880007634236B79BD8A71A396856B0
S113006018AEBAAB558C1D3CB7CC5763BD6DEDFDD6
S1130070753EF6177231BF000000803F0800000093
S1130080BE922449123EABAAAA2ABECDCCCC4C3E89
S113009000000080BEABAAAAAA3E00000000BF0078
S11300A00000803F0000000000084178D3BB438774
S11300B0D1133D190E3CC3BD4282AD2B3E68EC8288
S11300C076BED98FE1A93E4C80EFFFBE01C4FF7F0D
S11300D03F000000000011241FBECFE5D8E0DEBFC2
S11300E0CDBF10E0A0E6B0E0E0E3F2E102C005908D
S11300F00D92A036B107D9F720E0A0E6B0E001C028
S11301001D92A236B207E1F70E94CB000C941609A7
S11301100C9400003D983598309A319A329A379A67
S1130120813021F4F894339A78940895339808959B
S1130130613039F018F0633049F406C03E983F98B6
S113014005C03E9A3F9802C03E9A3F9A8032F0F42E
S113015080FF02C0389A01C0389881FF02C0399AE2
S113016001C0399882FF02C03A9A01C03A9883FFCD
S113017002C03B9A01C03B9884FF02C03C9A01C074
S11301803C98369A339902C03699FECF24B135B1E2
S1130190822F932F0895CF93DF93CDB7DEB7629765
S11301A00FB6F894DEBF0FBECDBF80E00E948A0078
S11301B080E00E94480481E00E94480482E00E949A
S11301C0480483E00E94240484E00E94240485E01F
S11301D00E94240488E00E946A0489E00E946A0460
S11301E08AE00E946A048BE00E946A048CE00E9408
S11301F06A0468E181E090E00E94150468E182E00D
S113020090E00E94150468E183E090E00E941504E8
S113021064E681E190E00E94150464E682E190E0E6
S11302200E94150464E683E190E00E94150460E0F6
S113023084E60E94C90482E00E947B0489EF0E9444
S1130240C70484E00E94AB041E821F8218861986AC
S11302501A8619821A821B821C821D82188A1F86A2
S11302601E861D861C861B86C12CD12CA12CB12C6C
S1130270612C712C812C912C212C312C412C512C52
S1130280E12CF12C00E010E020E030E03A8B298BE7
S113029080916000813079F51092600080E00E94C6
S11302A051049A8B898B81E00E9451048C0182E075
S11302B00E9451047C0183E00E942D043C0184E0EF
S11302C00E942D045C0185E00E942D046C0188E0ED
S11302D00E9473048D8389E00E9473048C838AE0F6
S11302E00E9473048B838BE00E9473048A838CE0E6
S11302F00E947304898389899A898415950509F470
S113030043C081E090E00E941D0490E0E989FA89ED
S1130310E817F90760F460E08AE70E94210580E0AD
S11303200E9455050E944C0549885A882DC081E0D9
S113033090E00E941D04482E512C29893A894216C6
S1130340530651F460E08AE70E94210581E00E948F
S113035055050E944C0518C081E090E00E941D04E0
S113036090E0E989FA898E179F0760F460E08AE7D4
S11303700E94210582E00E9455050E944C0549888F
S11303805A8802C049885A8802151305D1F182E0BF
S113039090E00E941D0490E00817190758F460E0EB
S11303A08AE70E94210580E10E9455050E944C05C0
S11303B0180127C082E090E00E941D04282E312CF1
S11303C02016310651F460E08AE70E94210581E19C
S11303D00E9455050E944C0514C082E090E00E94E2
S11303E01D0490E08017910758F460E08AE70E94AA
S11303F0210582E10E9455050E944C05180101C0A7
S11304001801E814F904D1F183E090E00E941D047E
S113041090E0E816F90658F460E08AE70E942105A6
S113042080E20E9455050E944C05470127C083E0E5
S113043090E00E941D04882E912C8E149F0451F488
S113044060E08AE70E94210581E20E9455050E942E
S11304504C0514C083E090E00E941D0490E08E15CA
S11304609F0558F460E08AE70E94210582E20E9419
S113047055050E944C05470101C047012B853C8569
S11304806216730651F181E190E00E941D0490E030
S11304908615970560F060E08AE70E94210580E3F5
S11304A00E9455050E944C057C866B8616C081E12E
S11304B090E00E941D0490E08615970560F460E0CA
S11304C08AE70E94210581E30E9455050E944C059C
S11304D07C866B8602C07C866B868D859E85A8167D
S11304E0B90651F182E190E00E941D0490E08A1562
S11304F09B0560F060E08AE70E94210580E40E9489
S113050055050E944C05BE86AD8616C082E190E07A
S11305100E941D0490E08A159B0560F460E08AE760
S11305200E94210581E40E9455050E944C05BE8667
S1130530AD8602C0BE86AD86EF85F889CE16DF068D
S113054051F183E190E00E941D0490E08C159D051B
S113055060F060E08AE70E94210580E50E9455056D
S11305600E944C05D88ACF8616C083E190E00E9491
S11305701D0490E08C159D0560F460E08AE70E94FC
S1130580210581E50E9455050E944C05D88ACF8635
S113059002C0D88ACF86FA852D81F21761F060E017
S11305A08AE70E9421058D8180660E9455050E947C
S11305B04C053D813A8789859C81891761F060E00B
S11305C08AE70E9421058C8180670E9455050E945C
S11305D04C05EC81E987F8852B81F21761F060E026
S11305E08AE70E9421058B8180680E9455050E943C
S11305F04C053B8138878F819A81891761F060E0CF
S11306008AE70E9421058A8180690E9455050E941B
S11306104C05EA81EF83FE812981F21709F438CE73
S113062060E08AE70E9421058981806A0E9455055D
S11306300E944C0539813E832BCE1F920F920FB638
S11306400F9211248F93809161008F5F80936100DA
S113065080916100823329F41092610081E08093DB
S113066060008F910F900FBE0F901F901895CF933D
S1130670DF931F92CDB7DEB71982813099F028F04D
S11306808230E9F08330A1F527C089B390E09C0162
S113069002C0359527956A95E2F7B901617077270D
S11306A0698326C086B390E09C0102C035952795E6
S11306B06A95E2F7B90161707727698319C083B33A
S11306C090E09C0102C0359527956A95E2F7B9013F
S11306D06170772769830CC080B390E09C0102C0ED
S11306E0359527956A95E2F7B90161707727698393
S11306F089810F90DF91CF910895813061F138F0B5
S1130700823009F44CC0833009F08EC06BC04111B3
S11307100DC02AB381E090E0AC0102C0440F551F24
S11307206A95E2F7BA01622B6ABB08952AB381E0A5
S113073090E0FC0102C0EE0FFF1F6A95E2F7BF01D3
S11307408E2F809582238ABB413009F06DC08BB314
S1130750682B6BBB089541110DC027B381E090E075
S1130760AC0102C0440F551F6A95E2F7BA01622B2F
S113077067BB089527B381E090E0FC0102C0EE0F4F
S1130780FF1F6A95E2F7BF018E2F8095822387BBF6
S1130790413009F049C088B3682B68BB0895411102
S11307A00DC024B381E090E0AC0102C0440F551F9A
S11307B06A95E2F7BA01622B64BB089524B381E021
S11307C090E0FC0102C0EE0FFF1F6A95E2F7BF0143
S11307D08E2F8095822384BB413031F585B3682BFD
S11307E065BB089541110DC021B381E090E0AC01D7
S11307F002C0440F551F6A95E2F7BA01622B61BB30
S1130800089521B381E090E0FC0102C0EE0FFF1FC8
S11308106A95E2F7BF018E2F8095822381BB413018
S113082019F482B3682B62BB0895E199FECF9FBB94
S11308308EBB6DBBE29AE19A0895E199FECF9FBB0E
S11308408EBBE09A8DB30895682F677042E0869559
S1130850869586950E947D03089561E00E94980024
S1130860BC0180E090E00E94630620E030E040EAB2
S11308705BE30E94F1062EEF35E647E75CE30E9456
S1130880CF050E94A0070E943706862F972F089550
S1130890682F677042E08695869586950E947D0351
S11308A0089563E00E949800BC0180E090E00E94FB
S11308B0630620E030E040E250E40E94F10620E0CC
S11308C030E040E251E40E94CF050E943706862FB3
S11308D0972F0895682F677042E0869586958695D0
S11308E00E947D030895682F677086958695869586
S11308F00E9437030895F89493B79F7793BF80FFBE
S113090004C093B7906493BF03C093B79F7B93BF16
S113091081FF04C093B7986093BF03C093B7977FD8
S113092093BF813051F028F0823071F0833079F434
S113093004C089B7816089BF0AC089B7816089BF53
S113094089B7826089BF03C089B7826089BF12BE3C
S11309501CBE7894089580FF04C093B7916093BF40
S113096003C093B79E7F93BF81FF04C093B7926087
S113097093BF03C093B79D7F93BF82FF04C083B727
S1130980846083BF089583B78B7F83BF08958CBF32
S11309900895BF92CF92DF92EF92FF920F931F932D
S11309A0CF93DF93F82EC62F70E080E090E00E9492
S11309B063069B01AC0160E070E080E890E40E9473
S11309C05407B62E072F182FD92F48EE53E0F49E64
S11309D09001F59E300D1124442737FD4095542F86
S11309E060E074E284EF90E00E94F408CA01B90167
S11309F060517109810991090E9463066B017C01B0
S1130A002B2D302F412F5D2F6B2D702F812F9D2F7C
S1130A100E946B059B01AC01C701B6010E94CF0582
S1130A200E94370660B981B1887FC82BC1B9DF91B4
S1130A30CF911F910F91FF90EF90DF90CF90BF90D7
S1130A40089596B7946096BF96B7906296BF96B78E
S1130A50906896BF06B607FEFDCF91B1987F983097
S1130A6011F09031A9F4880F682B63B986B78460BC
S1130A7086BF86B7806886BF06B607FEFDCF91B1F4
S1130A80987F983139F081E0903429F080E008951E
S1130A9080E0089581E0089586B7806186BF84E888
S1130AA086BF06B604FCFDCF089583B986B784607B
S1130AB086BF86B7806886BF06B607FEFDCF91B1B4
S1130AC0987F983229F081E0983B19F080E00895EE
S1130AD081E008955058BB27AA270ED048C139D1C8
S1130AE030F03ED120F031F49F3F11F41EF42EC1BA
S1130AF00EF4E095E7FB24C1E92F4AD180F3BA173D
S1130B00620773078407950718F071F49EF562C1B4
S1130B100EF4E0950B2EBA2FA02D0B01B901900114
S1130B200C01CA01A0011124FF27591B99F0593F58
S1130B3050F4503E68F11A16F040A22F232F342FA0
S1130B404427585FF3CF469537952795A795F040EE
S1130B505395C9F77EF41F16BA0B620B730B840B03
S1130B60BAF09150A1F0FF0FBB1F661F771F881FBB
S1130B70C2F70EC0BA0F621F731F841F48F4879513
S1130B8077956795B795F7959E3F08F0B3CF939502
S1130B90880F08F09927EE0F9795879508950CD044
S1130BA0E6C0DED040F0D5D030F021F45F3F19F03C
S1130BB0C7C0511110C1CAC0EBD098F39923C9F32F
S1130BC05523B1F3951B550BBB27AA27621773074F
S1130BD0840738F09F5F5F4F220F331F441FAA1F03
S1130BE0A9F333D00E2E3AF0E0E830D091505040C3
S1130BF0E695001CCAF729D0FE2F27D0660F771F71
S1130C00881FBB1F261737074807AB07B0E809F052
S1130C10BB0B802DBF01FF2793585F4F2AF09E3FE7
S1130C20510568F08DC0D7C05F3FECF3983EDCF30C
S1130C30869577956795B795F7959F5FC9F7880F60
S1130C40911D9695879597F90895E1E0660F771FB2
S1130C50881FBB1F621773078407BA0720F0621B43
S1130C60730B840BBA0BEE1F88F7E095089598D0A8
S1130C7088F09F5790F0B92F9927B751A0F0D1F081
S1130C80660F771F881F991F1AF0BA95C9F712C00B
S1130C90B13081F09FD0B1E008959CC0672F782FC8
S1130CA08827B85F39F0B93FCCF386957795679577
S1130CB0B395D9F73EF490958095709561957F4FE3
S1130CC08F4F9F4F0895E89409C097FB3EF4909589
S1130CD08095709561957F4F8F4F9F4F9923A9F011
S1130CE0F92F96E9BB279395F695879577956795A0
S1130CF0B795F111F8CFFAF4BB0F11F460FF1BC0E4
S1130D006F5F7F4F8F4F9F4F16C0882311F096E976
S1130D1011C0772321F09EE8872F762F05C0662324
S1130D2071F096E8862F70E060E02AF09A95660FDD
S1130D30771F881FDAF7880F9695879597F9089596
S1130D4097F99F6780E870E060E008959FEF80EC7A
S1130D50089500240A94161617061806090608951D
S1130D6000240A9412161306140605060895092E83
S1130D700394000C11F4882352F0BB0F40F4BF2BF2
S1130D8011F460FF04C06F5F7F4F8F4F9F4F089532
S1130D9057FD9058440F551F59F05F3F71F0479528
S1130DA0880F97FB991F61F09F3F79F0879508950D
S1130DB0121613061406551FF2CF4695F1DF08C02C
S1130DC0161617061806991FF1CF86957105610549
S1130DD008940895E894BB2766277727CB0197F9F1
S1130DE008950BD0C4CFB5DF28F0BADF18F09523EF
S1130DF009F0A6CFABCF1124EECFCADFA0F3959FA5
S1130E00D1F3950F50E0551F629FF001729FBB27ED
S1130E10F00DB11D639FAA27F00DB11DAA1F649F99
S1130E206627B00DA11D661F829F2227B00DA11D4C
S1130E30621F739FB00DA11D621F839FA00D611DD2
S1130E40221F749F3327A00D611D231F849F600DF3
S1130E50211D822F762F6A2F11249F5750408AF02C
S1130E60E1F088234AF0EE0FFF1FBB1F661F771FB8
S1130E70881F91505040A9F79E3F510570F060CFF4
S1130E80AACF5F3FECF3983EDCF3869577956795A0
S1130E90B795F795E7959F5FC1F7FE2B880F911DD6
S1130EA09695879597F90895FA01EE0FFF1F3096EE
S1130EB02105310599F16115710561F48038BFE3AD
S1130EC09B0749F168949038810561F08038BFEF41
S1130ED09B0741F0992342F5FF3FE10531052105C8
S1130EE011F1E8940894E795D901AA2329F4AB2FCA
S1130EF0BE2FF85FD0F310C0FF5F70F4A695E0F743
S1130F00F73950F019F0FF3A38F49F779F930CD0DB
S1130F100F9007FC905808953EF018CF60E070E001
S1130F2080E89FE308954FE79F775F934F933F9344
S1130F302F93E7D02F913F914F915F9152DF25C0BE
S1130F402FDFE0F09E37D8F09639B8F49E3848F495
S1130F50672F782F8827985FF9CF869577956795BF
S1130F6093959539D0F3B62FB1706B0F711D811D18
S1130F7020F4879577956795939533C04DC02BCF13
S1130F8019F40EF0DDCE26CFE1CE0ADFC8F3963891
S1130F90C0F707F80F92E8942BE33AEA48EB5FE7CF
S1130FA02EDF0F920F920F924DB75EB70F92E9D0DA
S1130FB0E4E5F0E03FD04F915F91EF91FF91E5952B
S1130FC0EE1FFF1F49F0FE57E0684427EE0F441F51
S1130FD0FA95E1F74195550B5BD00F9007FE4FC092
S1130FE00895882371F4772321F09850872B762F66
S1130FF007C0662311F499270DC09051862B70E029
S113100060E02AF09A95660F771F881FDAF7880F39
S11310109695879597F908959F3F31F0915020F464
S1131020879577956795B795880F911D96958795C0
S113103097F90895DF93CF931F930F93FF92EF9245
S1131040DF927B018C01689405C0DA2EEF01D5DEB6
S1131050FE01E894A5912591359145915591AEF302
S1131060EF014ADDFE019701A801DA9479F7DF90D8
S1131070EF90FF900F911F91CF91DF9108959B0105
S1131080AC0160E070E080E89FE389CD59CEC4CF25
S113109087DEE8F39923D9F3940F511DBBF39150E4
S11310A0504094F059F0882332F0660F771F881F60
S11310B091505040C1F79E3F510544F7880F911D50
S11310C09695879597F908955F3FACF0983E9CF00C
S11310D0BB27869577956795B79508F4B160939586
S11310E0C1F7BB0F58F711F460FFE8CF6F5F7F4F74
S11310F08F4F9F4FE3CF6FCE0EF08ECF27CE6894E5
S11311001FCE4EDEC8F39923D1F3C6F3DF93CF93FA
S11311101F930F93FF92C92FDD2788232AF021976D
S1131120660F771F881FDAF720E030E040E85FEBB6
S11311309FE3883920F0803E30F021968F77CBDC16
S1131140ECE7F0E003C0C7DCE9EAF0E073DF8B0111
S1131150BE01EC01FB2E6F5771097595771F880B43
S1131160990BB3DD28E132E741E35FE346DEAF2DBF
S11311709801AE01FF900F911F91CF91DF91BCDCDC
S1131180F6CDFA01DC01AA0FBB1F9B01AC01BF57CE
S113119028F422273327442750781FC0B75188F4F6
S11311A0AB2F0024469537952795011CA395D2F3C0
S11311B0002069F0220F331F441FB395DAF30DD0DA
S11311C089CC61307105A0E88A07B94630F49B01E7
S11311D0AC016627772788279078309621F0208302
S11311E03183428353830895A1E21A2EAA1BBB1BA9
S11311F0FD010DC0AA1FBB1FEE1FFF1FA217B307DF
S1131200E407F50720F0A21BB30BE40BF50B661FF4
S1131210771F881F991F1A9469F7609570958095B8
S113122090959B01AC01BD01CF010895F894FFCFC7
S9030000FC
